:10000000EFEF02F00000000000EF00F00000000041
:0A0010000000000000000000F3D71C
:10001C000B6A0A6A096A00500402F4CF09F0F3CFA4
:10002C0008F001500502F4CF0BF0F3CF0AF00050AA
:10003C000502F3500926F4500A22E86A0B220150FB
:10004C000402F3500926F4500A22E86A0B2208C075
:10005C0000F009C001F00AC002F00BC003F012005E
:10006C006350390806E3300E635C03E3010E006E47
:06007C0001D0006A120031
:0E008200ACB202D00000FCD763C0ADFF12008C
:100090005BC002F05CC003F05EC000F05FC001F026
:1000A000010E5E5E000E5F5A0050011009E002C0B2
:1000B000E1FF03C0E2FF5DC0E6FF024A032AECD77E
:0A00C0005BC000F05CC001F012000C
:1000CA005D6A5BC0E9FF5CC0EAFFEECF5EF05E509E
:1000DA00000A0DE05EC063F0CFDF5D2A5D505B244D
:1000EA00E96E000E5C20EA6EEECF5EF0F0D71200E9
:0A00FA00000EACB2010E006E120001
:10010400AECF45F0ABA202D0AB98AB8845C000F0AF
:020114001200D7
:100116005BC004F05CC005F05F50601024E0010E87
:100126005F5E000E605A04C002F005C003F0044A88
:10013600052A5DC000F05EC001F05D4A5E2A00C07F
:10014600E9FF01C0EAFF02C0E1FF03C0E2FFEECF14
:10015600E6FF02C0E9FF03C0EAFFEECF00F000525F
:1001660001E101D0D9D75FC000F060C001F0010EF7
:100176005F5E000E605A0050011008E004C0E1FF07
:1001860005C0E2FFE66A044A052AEDD75BC000F027
:060196005CC001F0120044
:10019C005BC004F05CC005F004C0E9FF05C0EAFFD9
:1001AC00EE5203E0044A052AF7D75F50601021E0B5
:1001BC0004C002F005C003F0044A052A5DC000F03B
:1001CC005EC001F05D4A5E2A00C0E9FF01C0EAFF93
:1001DC0002C0E1FF03C0E2FFEECFE6FF02C0E9FF81
:1001EC0003C0EAFFEE5205E0010E5F5E000E605A9E
:1001FC00DCD7000E601802E1000E5F1805E104C0A8
:10020C00E1FF05C0E2FFE66A5BC000F05CC001F0F4
:02021C001200CE
:10021E005BC0E9FF5CC0EAFFEECF5DF0000E5E6EE4
:10022E00000E5E6E000E5E1802E1200E5D1807E0F5
:10023E00000E5E1802E1090E5D1801E003D05B4A64
:10024E005C2AE6D75F6A606A616A626A000E5E18AF
:10025E0002E12D0E5D1805E1614A622A5B4A5C2AB5
:10026E0008D0000E5E1802E12B0E5D1802E15B4A0B
:10027E005C2A5BC0E9FF5CC0EAFFEECF5DF0000ECA
:10028E005E6E000E5E6E5DC063F0E9DE005218E039
:10029E005FC000F060C001F00A0E046E000E056E25
:1002AE00B6DE300E5D5C026E000E5E58036E0250BE
:1002BE0000245F6E03500120606E5B4A5C2AD9D722
:1002CE006150621008E05F500008006E60C001F0DF
:1002DE00000E015612005FC000F060C001F0120067
:0A02EE00000E9EBA010E006E120011
:1002F80053C004F054C005F004C002F005C003F078
:10030800044A052A55C000F056C001F0554A562A3D
:1003180000C0E9FF01C0EAFF02C0E1FF03C0E2FF3D
:10032800EECFE6FF02C0E9FF03C0EAFFEE5201E0AC
:0C033800E3D753C000F054C001F01200E5
:100344000900F5CFE6FF0006FBE10106F9E1120022
:10035400550E5B6E000E5C6E5D6A060E5E6E000EE0
:100364005F6E94DE550E5B6E000E5C6E53C05DF0E6
:1003740054C05EF0050E5F6E000E606ECADE550E50
:100384005B6E000E5C6E2C0E5D6E000E5E6E010EDA
:100394005F6E000E606E00DFAEDE0050010A01E009
:0E03A400FBD7550E5B6E000E5C6E8DDE1200F8
:1003B200820E4A6E000E4B6E630E4C6E000E4D6E38
:1003C200040E466E010E476E000E486E000E496E18
:1003D200EE0E3D6E020E3E6E000E3F6E000E406E41
:1003E200FA0E416E000E426E000E436E000E446E17
:1003F200AC8A900EAB6E948E949C9EAA03D0AECF24
:0604020000F0FBD7120020
:10040800586A596A57523DE05750FF0A01E05706AB
:100418006ADF0050000A01E1FBD770DE00C05AF025
:1004280059505324E16E000E5420E26E00C0E6FFDE
:10043800592A58505524E96E000E5620EA6EEECF20
:1004480001F001505A1802E1582A01D0586A585050
:100458005524E96E000E5620EA6EEECF01F00150E9
:10046800000A0EE15850595C006E016A000E015AEC
:1004780000505324E16E01505420E26EE66A1200E7
:0E048800C1D753C0E1FF54C0E2FFE66A120084
:1004960053C0E9FF54C0EAFFEE5214E053C0E9FF2F
:1004A60054C0EAFFEECF02F055C0E9FF56C0EAFF9E
:1004B600EECF01F00250011805E1534A542A554A7D
:1004C600562AE6D753C0E9FF54C0EAFF55C0D9FF04
:1004D60056C0DAFFDE50EE5C006E016A000E015A6D
:0204E600120002
:1004E80053C002F054C003F002C000F003C001F092
:1004F800024A032A00C0E9FF01C0EAFFEE5201E008
:10050800F3D75350025C006E54500358016E010E2D
:08051800005E000E015A120002
:10052000550E5B6E000E5C6E53C05DF054C05EF005
:10053000040E5F6E000E606EEEDD040E5324E96E55
:10054000000E5420EA6EEECF01F00150580A0AE185
:10055000550E5B6E000E5C6E62DE00C031F001C0B5
:1005600032F03CD0040E5324E96E000E5420EA6EA3
:10057000EECF01F00150590A0AE1550E5B6E000EF4
:100580005C6E4DDE00C033F001C034F027D0040EA5
:100590005324E96E000E5420EA6EEECF01F00150B4
:1005A0005A0A0AE1550E5B6E000E5C6E38DE00C022
:1005B0002EF001C02FF012D0040E5324E96E000E6D
:1005C0005420EA6EEECF01F00150420A07E1550EC9
:0E05D0005B6E000E5C6E23DE00C030F0120089
:1005DE006EEC04F0936A956A816A836A216A226AD4
:1005EE00236A246A256A266A316A326A336A346A51
:1005FE002E6A2F6A010E1F6E000E206E010E156EF2
:10060E00000E166E100E176E000E186E306A810EEA
:10061E00AF6EAC84C7DE030E0B6E8A0E0C6E550EDB
:10062E000D6E0D2EFED70C2EFCD70B2EFAD700001A
:10063E000000190E536E000E546E85DE51DE005210
:10064E0040E0350E5B6E000E5C6E5D6A080E5E6EEF
:10065E00000E5F6E16DD350E536E000E546E270EB5
:10066E00556E000E566E080E576EC7DE350E536E63
:10067E00000E546E68DE350E536E000E546E290E4B
:10068E00556E000E566E00DF0050011006E14E0E44
:10069E00536E000E546E3DDF14D0350E536E000EA9
:1006AE00546E1BDF000E011802E1050E001809E161
:1006BE004E0E536E000E546E350E556E000E566E67
:1006CE0014DE2250325C02E12150315C21E2010E37
:1006DE00215E000E225A000E201802E1010E1F1894
:1006EE0005E1080E036E000E046E0DD01FC000F063
:1006FE0020C001F001320032019E01BC018E00C00B
:10070E0003F001C004F003C01FF004C020F022D09B
:10071E003250225C02E13150215C1CE2214A222A35
:10072E00000E201802E1080E1F1805E1010E036EDF
:10073E00000E046E0BD01FC000F020C001F000367A
:10074E000090013600C003F001C004F003C01FF09A
:10075E0004C020F026502F5C02E125502E5C21E2D1
:10076E00010E255E000E265A000E181802E1100E1C
:10077E00171805E1800E036E000E046E0DD017C023
:10078E0000F018C001F001320032019E01BC018E52
:10079E0000C003F001C004F003C017F004C018F04D
:1007AE0022D02F50265C02E12E50255C1CE2254AF9
:1007BE00262A000E181802E1800E171805E1100EF9
:1007CE00036E000E046E0BD017C000F018C001F0BF
:1007DE0000360090013600C003F001C004F003C0E3
:1007EE0017F004C018F02450345C02E12350335C3F
:1007FE001FE2010E235E000E245A000E161802E1AF
:10080E00080E151805E1010E036E000E046E0BD0D6
:10081E0015C000F016C001F000360090013600C081
:10082E0003F001C004F003C015F004C016F024D08C
:10083E003450245C02E13350235C1EE2234A242A06
:10084E00000E161802E1010E151805E1080E036ED2
:10085E00000E046E0DD015C000F016C001F001326E
:10086E000032019E01BC018E00C003F001C004F0F5
:10087E0003C015F004C016F017501F24816E040E2D
:10088E00016E30C000F0015004E000360090FF0F02
:10089E00FBD715500024836E210E0C6E760E0D6E56
:0E08AE000D2EFED70C2EFCD70000C8D6FFD7AB
:1008DC0010EE15F0200E006E010E016EBC0EF66EC1
:0E08EC00080EF76E000EF86EA2EC01F012007E
:0208BC00010039
:0208BE00100028
:0608C0005265616479003D
:0208C60001002F
:0208C80000002E
:0208CA0000002C
:0208CC0000002A
:0208CE006600C2
:0308D0004F4B008B
:0208D3006600BD
:0208D500000021
:0108D7000020
:0208D80000001E
:0208DA0000001C
:020000040030CA
:0D000100220F0EFF0181FF0FC00FE00F4026
:00000001FF
