:020000040000FA
:100000000DEF16F0946A826A0A0E0001906F0001EB
:10001000916B0001926B0001936B0A0E0001AE6FB1
:100020000001AF6B0001B06B0001B16B0E0E00015F
:10003000CC6F0001CD6B0001CE6B0001CF6B320E97
:100040000001EA6F0001EB6B0001EC6B0001ED6B4E
:10005000640E0001806F0001816B0001826B000162
:10006000836B640E00019E6F00019F6B0001A06B0B
:100070000001A16B640E0001BC6F0001BD6B0001AB
:10008000BE6B0001BF6B6E0E0001DA6F0001DB6B0F
:100090000001DC6B0001DD6B0001846B0001856BEE
:1000A0000001866B0001876B640E0001A26F0001E6
:1000B000A36B0001A46B0001A56BC80E0001C06F0B
:1000C0000001C16B0001C26B0001C36B2C0E00016B
:1000D000DE6F010E0001DF6F0001E06B0001E16BDC
:1000E000E80E0001886F030E0001896F00018A6B22
:1000F00000018B6BE80E0001A66F030E0001A76FD5
:100100000001A86B0001A96BD00E0001C46F070E9F
:100110000001C56F0001C66B0001C76BDC0E00015A
:10012000E26F050E0001E36F0001E46B0001E56B77
:10013000640E00018C6F00018D6B00018E6B00015D
:100140008F6B640E0001AA6F0001AB6B0001AC6BFA
:100150000001AD6BF40E0001C86F010E0001C96F04
:100160000001CA6B0001CB6B580E0001E66F020E56
:100170000001E76F0001E86B0001E96B0201706BA1
:100180000201716B02017151800F800F03E1040EB7
:100190000201705DD8B0A6D002017151E56E020176
:1001A0007051E56E000EE56E1E0EE56E71EC15F0F9
:1001B000006EF3CF01F0040EE126800E0026000E43
:1001C00001220050140F026E000E0120036E005039
:1001D0000C0F046E000E0120056E04C0E9FF05C07F
:1001E000EAFFEECF04F0EECF05F0EECF06F0EFCF52
:1001F00007F00750E56E0650E56E0550E56E0450B9
:10020000E56E000EE56E000EE56E000EE56E020E68
:10021000E56EC2EC0FF0046EF3CF05F0F4CF06F0FC
:10022000E9CF07F0080EE1260050080F086E000E17
:100230000120096E08C0E9FF09C0EAFFEECF08F00F
:10024000EECF09F0EECF0AF0EFCF0BF00850042606
:10025000095005220A5006220B50072200C0E9FF70
:1002600001C0EAFFEECF08F0EECF09F0EECF0AF0C2
:10027000EFCF0BF008500426095005220A50062241
:100280000B50072202C0E9FF03C0EAFF04C0EEFFE3
:1002900005C0EEFF06C0EEFF07C0EFFF00501C0FC9
:1002A000026E000E0120036E02C0E9FF03C0EAFFE8
:1002B000000EEE6E000EEF6E180E0026D8B0012A6A
:1002C00000C0E9FF01C0EAFF000EEE6E000EEE6E08
:1002D000000EEE6E000EEF6E0201702B02E30201C3
:1002E000712B50D70201706B0201716B02017151C9
:1002F000800F800F03E1080E0201705D23E202010E
:100300007151E56E02017051E56E000EE56E020E50
:10031000E56E71EC15F0006EF3CF01F0040EE126EE
:10032000000E0026020E012200C0E9FF01C0EAFF14
:10033000000EEE6E000EEF6E0201702B02E3020162
:10034000712BD4D70201726B0201736B67EC0DF055
:1003500000C272F201C273F202010351E56E0201A2
:100360000251E56E000EE56E020EE56E71EC15F0C1
:10037000006EF3CF01F0040EE12600500201722757
:1003800001500201732302010551E56E020104517F
:10039000E56E000EE56E040EE56E71EC15F0006E74
:1003A000F3CF01F0040EE126005002017227015044
:1003B0000201732302010751E56E02010651E56E49
:1003C000000EE56E080EE56E71EC15F0006EF3CFD1
:1003D00001F0040EE12600500201722701500201D3
:1003E000732302010951E56E02010851E56E000E0A
:1003F000E56E100EE56E71EC15F0006EF3CF01F0B6
:10040000040EE126005002017227015002017323FD
:1004100002010B51E56E02010A51E56E000EE56E18
:10042000200EE56E71EC15F0006EF3CF01F0040EB6
:10043000E1260050020172270150020173230201DC
:100440000D51E56E02010C51E56E000EE56E400E99
:10045000E56E71EC15F0006EF3CF01F0040EE126AD
:1004600000500201722701500201732302010F5153
:10047000E56E02010E51E56E000EE56E800EE56E32
:1004800071EC15F0006EF3CF01F0040EE126005080
:100490000201722701500201732302017251826E20
:1004A000040E0201706F0201716B02017051FF0FA7
:1004B000006EFF0E02017121016E0150E56E0050C9
:1004C000E56E000EE56E1E0EE56E71EC15F0026E27
:1004D000F3CF03F0040EE126800E0226000E032265
:1004E000180E0226D8B0032A02C0E9FF03C0EAFFB3
:1004F000EECF04F0EECF05F0EECF06F0EFCF07F031
:10050000042AD8B0052AD8B0062AD8B0072A02C0D3
:10051000E9FF03C0EAFF04C0EEFF05C0EEFF06C01E
:10052000EEFF07C0EFFF00C070F201C071F20201E0
:10053000705102017111D8A4B8D70201706B020189
:10054000716B02017151800F800F03E1040E0201F3
:10055000705DD8B0C7D602017151E56E02017051CD
:10056000E56E000EE56E1E0EE56E71EC15F0006E88
:10057000F3CF01F0040EE126800E0026000E0122CA
:1005800000501C0F026E000E0120036E02C0E9FF36
:1005900003C0EAFFEECF04F0EFCF05F004500510E2
:1005A000D8A45FD00050180F046E000E0120056E15
:1005B00004C0E9FF05C0EAFFEECF06F0EECF07F07A
:1005C000EECF08F0EFCF09F00050040F0A6E000ED6
:1005D00001200B6E0AC0E9FF0BC0EAFFEECF0AF064
:1005E000EECF0BF0EECF0CF0EFCF0DF00D50800FF3
:1005F000F36E0950800FF35C08E108500C5C05E1D4
:1006000007500B5C02E106500A5CD8B070D002C003
:10061000E9FF03C0EAFF010EEE6E000EEF6E02C0AE
:10062000E9FF03C0EAFFEECF02F0EFCF03F0E86A84
:1006300003BEFF0E0A6E0B6E0250065E0350075A91
:100640000A50085A0B50095A04C0E9FF05C0EAFFD6
:1006500006C0EEFF07C0EEFF08C0EEFF09C0EFFFC7
:1006600046D00050180F026E000E0120036E02C02B
:10067000E9FF03C0EAFFEECF04F0EECF05F0EECFC6
:1006800006F0EFCF07F0140E0026D8B0012A00C004
:10069000E9FF01C0EAFFEECF00F0EECF01F0EECFB0
:1006A00008F0EFCF09F00950800FF36E0750800F6C
:1006B000F35C08E10650085C05E10550015C02E1CD
:1006C0000450005C14E20050045E0150055A0850CA
:1006D000065A0950075A02C0E9FF03C0EAFF04C0E6
:1006E000EEFF05C0EEFF06C0EEFF07C0EFFF020100
:1006F000702B02E30201712B24D71200D9CFE5FF42
:10070000E1CFD9FF00C0E5FF01C0E5FF02C0E5FF72
:1007100003C0E5FF04C0E5FF05C0E5FF06C0E5FF37
:1007200007C0E5FF08C0E5FF09C0E5FF0AC0E5FF17
:100730000BC0E5FF0CC0E5FF0DC0E5FF0EC0E5FFF7
:100740000FC0E5FF10C0E5FF11C0E5FF020EDBCFD3
:1007500000F0030EDBCF01F00150E56E0050E56EB6
:10076000000EE56E1E0EE56E71EC15F0026EF3CF15
:1007700003F0040EE126800E0226000E0322025032
:10078000180F046E000E0320056E04C0E9FF05C0BB
:10079000EAFFEECF04F0EECF05F0EECF06F0EFCF9C
:1007A00007F002500C0F086E000E0320096E08C0FF
:1007B000E9FF09C0EAFFEECF08F0EECF09F0EECF77
:1007C0000AF0EFCF0BF00850045E0950055A0A50AA
:1007D000065A0B50075A0250080F0C6E000E0320E9
:1007E0000D6E0CC0E9FF0DC0EAFFEECF0CF0EECFAE
:1007F0000DF0EECF0EF0EFCF0FF00C50045E0D5069
:10080000055A0E50065A0F50075A100E0226D8B03D
:10081000032A02C0E9FF03C0EAFFEECF02F0EECFE9
:1008200003F0EECF0CF0EFCF0DF00D50E56E0C5055
:10083000E56E0350E56E0250E56E0750E56E06501A
:10084000E56E0550E56E0450E56ECCEC10F00E6ED2
:10085000F3CF0FF0F4CF10F0E9CF11F0080EE1263E
:10086000E86A0FBEFF0E106E116E0D50E56E0C5053
:10087000E56E0350E56E0250E56E1150E56E1050C6
:10088000E56E0F50E56E0E50E56EC2EC0FF00E6E89
:10089000F3CF0FF0F4CF10F0E9CF11F0080EE126FE
:1008A0000E50045C0E6E0F5005580F6E1050065817
:1008B000106E11500758116E0750E56E0650E56E28
:1008C0000550E56E0450E56E28EC14F0046EF3CF8D
:1008D00005F0F4CF06F0E9CF07F0040EE1260B5047
:1008E000E56E0A50E56E0950E56E0850E56E28EC9D
:1008F00014F0086EF3CF09F0F4CF0AF0E9CF0BF053
:10090000040EE1260B50E56E0A50E56E0950E56EC7
:100910000850E56E0750E56E0650E56E0550E56E31
:100920000450E56E9FEC0BF0046EF3CF05F0F4CFAE
:1009300006F0E9CF07F0080EE1260750E56E0650F5
:10094000E56E0550E56E0450E56E3F0EE56E800ED7
:10095000E56E000EE56E000EE56E61EC12F0046EC1
:10096000F3CF05F0F4CF06F0E9CF07F0080EE1264B
:100970000D50E56E0C50E56E0350E56E0250E56ECD
:1009800028EC14F0026EF3CF03F0F4CF08F0E9CFB7
:1009900009F0040EE1260950E56E0850E56E03509B
:1009A000E56E0250E56E0750E56E0650E56E0550A7
:1009B000E56E0450E56EBBEC09F0026EF3CF03F078
:1009C000F4CF04F0E9CF05F0080EE126400EE56E05
:1009D000000EE56E000EE56E000EE56E0550E56E4C
:1009E0000450E56E0350E56E0250E56E9FEC0BF08F
:1009F000066EF3CF07F0F4CF08F0E9CF09F0080E48
:100A0000E1261150E56E1050E56E0F50E56E0E5068
:100A1000E56E28EC14F00A6EF3CF0BF0F4CF0CF077
:100A2000E9CF0DF0040EE1260950E56E0850E56EA1
:100A30000750E56E0650E56E0D50E56E0C50E56E04
:100A40000B50E56E0A50E56E0BEC13F0066E080EC7
:100A5000E12606502CE10050066ED8900636000EB6
:100A600006BEFF0ED8900634076E086A07BE0868F7
:100A7000000E0726020E082207C0E9FF08C0EAFFA1
:100A8000010EEE6E000EEF6E062AD8900636076A4B
:100A900006BE0768000E0626020E072206C0E9FF02
:100AA00007C0EAFF000EEE6E000EEF6E40D005505C
:100AB000E56E0450E56E0350E56E0250E56E0D5094
:100AC000E56E0C50E56E0B50E56E0A50E56E0BECD2
:100AD00013F0026E080EE126025029E1D89000368C
:100AE000000E00BEFF0ED8900034016E026A01BEF7
:100AF0000268000E0126020E022201C0E9FF02C0B8
:100B0000EAFF000EEE6E000EEF6E002AD89000365F
:100B1000016A00BE0168000E0026020E012200C01C
:100B2000E9FF01C0EAFF010EEE6E000EEF6EE4CFAA
:100B300011F0E4CF10F0E4CF0FF0E4CF0EF0E4CFEB
:100B40000DF0E4CF0CF0E4CF0BF0E4CF0AF0E4CFEB
:100B500009F0E4CF08F0E4CF07F0E4CF06F0E4CFEB
:100B600005F0E4CF04F0E4CF03F0E4CF02F0E4CFEB
:100B700001F0E4CF00F0E4CFD9FF1200D9CFE5FFB8
:100B8000E1CFD9FF00C0E5FF01C0E5FF02C0E5FFEE
:100B900003C0E5FF04C0E5FF05C0E5FF06C0E5FFB3
:100BA00007C0E5FF08C0E5FF09C0E5FF0AC0E5FF93
:100BB0000BC0E5FF0CC0E5FF0DC0E5FF0EC0E5FF73
:100BC0000FC0E5FF10C0E5FF11C0E5FF020EDBCF4F
:100BD00000F0030EDBCF01F00150E56E0050E56E32
:100BE000000EE56E1E0EE56E71EC15F0026EF3CF91
:100BF00003F0040EE126800E0226000E03220250AE
:100C0000180F046E000E0320056E04C0E9FF05C036
:100C1000EAFFEECF04F0EECF05F0EECF06F0EFCF17
:100C200007F00250100F086E000E0320096E08C076
:100C3000E9FF09C0EAFFEECF08F0EECF09F0EECFF2
:100C40000AF0EFCF0BF00B50E56E0A50E56E09503D
:100C5000E56E0850E56E0750E56E0650E56E0550EE
:100C6000E56E0450E56ECCEC10F00C6EF3CF0DF099
:100C7000F4CF0EF0E9CF0FF0080EE126E86A0DBEC2
:100C8000FF0E0E6E0F6E0B50E56E0A50E56E0950AA
:100C9000E56E0850E56E0F50E56E0E50E56E0D5096
:100CA000E56E0C50E56EC2EC0FF00C6EF3CF0DF05C
:100CB000F4CF0EF0E9CF0FF0080EE1260C50045CE3
:100CC0000C6E0D5005580D6E0E5006580E6E0F50DE
:100CD00007580F6E0750E56E0650E56E0550E56E3D
:100CE0000450E56E28EC14F0046EF3CF05F0F4CF59
:100CF00006F0E9CF07F0040EE1260C0E0226D8B06C
:100D0000032A02C0E9FF03C0EAFFEECF02F0EECFF4
:100D100003F0EECF10F0EFCF11F01150E56E105050
:100D2000E56E0350E56E0250E56E28EC14F0026E9D
:100D3000F3CF03F0F4CF10F0E9CF11F0040EE12669
:100D40001150E56E1050E56E0350E56E0250E56EF1
:100D50000750E56E0650E56E0550E56E0450E56EF1
:100D60009FEC0BF0026EF3CF03F0F4CF04F0E9CF69
:100D700005F0080EE1260B50E56E0A50E56E0950AD
:100D8000E56E0850E56E28EC14F0066EF3CF07F020
:100D9000F4CF08F0E9CF09F0040EE1260950E56E22
:100DA0000850E56E0750E56E0650E56E0550E56E9D
:100DB0000450E56E0350E56E0250E56EBBEC09F0A1
:100DC000026EF3CF03F0F4CF04F0E9CF05F0080E84
:100DD000E126400EE56E000EE56E000EE56E000E9B
:100DE000E56E0550E56E0450E56E0350E56E025069
:100DF000E56E9FEC0BF0066EF3CF07F0F4CF08F032
:100E0000E9CF09F0080EE1260F50E56E0E50E56EB1
:100E10000D50E56E0C50E56E28EC14F00A6EF3CF21
:100E20000BF0F4CF0CF0E9CF0DF0040EE1260950E1
:100E3000E56E0850E56E0750E56E0650E56E0D5004
:100E4000E56E0C50E56E0B50E56E0A50E56E0BEC4E
:100E500013F0066E080EE12606502CE10050066ED7
:100E6000D8900636000E06BEFF0ED8900634076EE8
:100E7000086A07BE0868000E0726020E082207C08F
:100E8000E9FF08C0EAFF010EEE6E000EEF6E062AC3
:100E9000D8900636076A06BE0768000E0626020EC0
:100EA000072206C0E9FF07C0EAFF000EEE6E000E43
:100EB000EF6E40D00550E56E0450E56E0350E56ED0
:100EC0000250E56E0D50E56E0C50E56E0B50E56E70
:100ED0000A50E56E0BEC13F0026E080EE12602508C
:100EE00029E1D8900036000E00BEFF0ED8900034E5
:100EF000016E026A01BE0268000E0126020E022285
:100F000001C0E9FF02C0EAFF000EEE6E000EEF6EB8
:100F1000002AD8900036016A00BE0168000E002643
:100F2000020E012200C0E9FF01C0EAFF010EEE6ED1
:100F3000000EEF6EE4CF11F0E4CF10F0E4CF0FF02D
:100F4000E4CF0EF0E4CF0DF0E4CF0CF0E4CF0BF0E3
:100F5000E4CF0AF0E4CF09F0E4CF08F0E4CF07F0E3
:100F6000E4CF06F0E4CF05F0E4CF04F0E4CF03F0E3
:100F7000E4CF02F0E4CF01F0E4CF00F0E4CFD9FFFA
:100F80001200D9CFE5FFE1CFD9FF00C0E5FF01C0D6
:100F9000E5FF02C0E5FF03C0E5FF04C0E5FF05C0B3
:100FA000E5FF06C0E5FF07C0E5FF020EDBCF00F05E
:100FB000030EDBCF01F0040EDBCF02F0050EDBCF1A
:100FC00003F0060EDBCF04F0070EDBCF05F0080EB2
:100FD000DBCF06F0090EDBCF07F00201586B596B2F
:100FE0005A6B5B6B005002015C6F01505D6F0250E9
:100FF0005E6F03505F6F04500201606F0550616FB8
:101000000650626F0750636F02015C515D115E1103
:101010005F1109E163C2E9FF62C2F4FF61C2F3FF3D
:101020000201605195D10201605161116211631199
:1010300009E15FC2E9FF5EC2F4FF5DC2F3FF020196
:101040005C5186D102015E355F35006E016A013662
:10105000026A036A016A026A036A005002017E6F33
:1010600001507F6F0201623563350201806F816B31
:101070008051190F006E000E8121800FF36E020166
:101080007F51800FF35C02E17E51005C09E25FC298
:10109000E9FF5EC2F4FF5DC2F3FF02015C5158D16B
:1010A00002017E51190F006E000E7F21800FF36E3A
:1010B00002018151800FF35C02E18051005C09E282
:1010C00063C2E9FF62C2F4FF61C2F3FF0201605133
:1010D0003FD102015C51006E5D51016E7F0E5E15C5
:1010E000026E00500201646F0150656F800E0210A5
:1010F000666F676B02016051006E6151016E7F0E79
:101100006215026E00500201686F0150696F800E17
:1011100002106A6F6B6B02015F45010B006E00A04D
:101120000BD00201671F661F651F646D05E1652B0B
:1011300003E1662B01E1672B02016345010B006EA1
:1011400000A00BD002016B1F6A1F691F686D05E1CB
:10115000692B03E16A2B01E16B2B02018151800FA6
:10116000F36E02017F51800FF35C03E17E510201B7
:10117000805D21E20201805102017E5D006E02016C
:10118000815102017F59005015E00CE6E86CD890BF
:1011900002016BBFD8806B336A3369336833010F48
:1011A000F7E32DD0D8900201683769376A376B377B
:1011B000010FF9E324D002017E510201805D006E2F
:1011C00002017F5102018159005015E00CE6E86CE4
:1011D000D890020167BFD8806733663365336433C4
:1011E000010FF7E308D0D8900201643765376637FE
:1011F0006737010FF9E380C27EF281C27FF20201FC
:10120000685102016427020169510201652302014C
:101210006A510201662302016B5102016723D880E3
:1012200067AFD89011E3671F661F651F646D05E106
:10123000652B03E1662B01E1672B0201586B596BAB
:101240005A6B800E5B6F0BD0020164516511661101
:10125000671105E1E96AF46AF36AE86A79D064C261
:1012600000F065C201F066C202F067C203F0000E32
:10127000035C08E1800E025C05E1000E015C02E106
:10128000000E005C0CE2020164516427653766378A
:101290006737FF0E02017E2701E27F07E0D764C2B5
:1012A00000F065C201F066C202F067C203F00350AD
:1012B00014E0020164A106D0020E6427000E65232B
:1012C000662367230201673567336633653364330A
:1012D00002017E2B01E37F2BE2D70201669F7EC2D3
:1012E00000F07FC201F0E86A01300030076E066A44
:1012F0000632046A056A045002015811006E055056
:101300005911016E06505A11026E07505B11036E9F
:1013100064C204F065C205F066C206F067C207F059
:101320000450001205500112065002120750031219
:10133000005002015C6F01505D6F02505E6F035000
:101340005F6F5FC2E9FF5EC2F4FF5DC2F3FF5C51F5
:10135000E4CF07F0E4CF06F0E4CF05F0E4CF04F0EB
:10136000E4CF03F0E4CF02F0E4CF01F0E4CF00F0EB
:10137000E4CFD9FF1200D9CFE5FFE1CFD9FF00C0FC
:10138000E5FF01C0E5FF02C0E5FF03C0E5FF04C0C3
:10139000E5FF05C0E5FF06C0E5FF07C0E5FF08C0A3
:1013A000E5FF09C0E5FF0AC0E5FF020EDBCF00F054
:1013B000030EDBCF01F0040EDBCF02F0050EDBCF16
:1013C00003F0060EDBCF04F0070EDBCF05F0080EAE
:1013D000DBCF06F0090EDBCF07F0005002012C6FC7
:1013E00001502D6F02502E6F03502F6F04500201D9
:1013F000306F0550316F0650326F0750336F020166
:101400002C512D112E112F1106E0020130513111F6
:101410003211331105E1E96AF46AF36AE86A76D1B8
:1014200002012F45010B006E016A026A036A010E78
:101430000016016A026A036A02013345010B046E59
:10144000056A066A076A010E0416056A066A076AD3
:101450000450001A0550011A0650021A0750031AC8
:1014600002012E352F35016E036A046A026A820E6C
:101470000126FF0E02220322042201500201746F92
:101480000250756F020132353335016E026A74C243
:1014900005F075C206F005500126065002220150E3
:1014A0000201746F0250756F02012C51016E2D51B3
:1014B000026E7F0E2E15036E038E01502C6F0250AC
:1014C0002D6F03502E6F2F6B02013051016E315181
:1014D000026E7F0E3215036E038E0150306F025084
:1014E000316F0350326F336B02012D51016E2E515B
:1014F000026E2F51036E02013151056E3251066E9C
:101500003351E56AE56E0650E56E0550E56EE56A15
:101510000350E56E0250E56E0150E56EC2EC0FF02F
:101520000201346FF3CF35F2F4CF36F2E9CF37F260
:10153000080EE12602012C51016E02013151056EA7
:101540003251066E3351E56AE56E0650E56E055080
:10155000E56EE56AE56AE56A0150E56EC2EC0FF0FA
:10156000F3CF02F0F4CF03F0E9CF04F0080EE12648
:101570000250016E0350026E0450036E046A015063
:1015800002013427025035230350362304503723F9
:1015900002013051016E02012D51056E2E51066E71
:1015A0002F51E56AE56E0650E56E0550E56EE56A79
:1015B000E56AE56A0150E56EC2EC0FF0F3CF02F088
:1015C000F4CF03F0E9CF04F0080EE1260250016EDB
:1015D0000350026E0450036E046A01500201342766
:1015E00002503523035036230450372337AF0ED033
:1015F000800E3427000E3523362337233551346FC0
:101600003651356F3751366F376B1AD0400E0201A5
:101610003427000E35233623372334353535346FE0
:10162000356B35373651E844FE0B351336353735D3
:10163000366F376B3737FF0E0201742701E27507EB
:101640000201369F02017551800F7F0F02E1000EEB
:10165000745D19E3005006E0016A026A036A800EB5
:10166000046E04D0016A026A036A046A038E7F0E64
:101670000412015002012C6F02502D6F03502E6F87
:1016800004502F6F3BD0D880020175AFD89006E38D
:1016900002012C6B2D6B2E6B2F6B30D0005006E0AF
:1016A000006A016A026A800E036E04D0006A016A51
:1016B000026A036A74C204F075C205F0E86A053074
:1016C00004300A6E096A0932086A085000120112D1
:1016D000095002120A50031202013451001235510E
:1016E00001123651021237510312005002012C6FC1
:1016F00001502D6F02502E6F03502F6F2FC2E9FF44
:101700002EC2F4FF2DC2F3FF02012C51E4CF0AF0E8
:10171000E4CF09F0E4CF08F0E4CF07F0E4CF06F01F
:10172000E4CF05F0E4CF04F0E4CF03F0E4CF02F01F
:10173000E4CF01F0E4CF00F0E4CFD9FF1200D9CF1D
:10174000E5FFE1CFD9FF00C0E5FF01C0E5FF02C022
:10175000E5FF03C0E5FF04C0E5FF05C0E5FF06C0E7
:10176000E5FF07C0E5FF08C0E5FF09C0E5FF0AC0C7
:10177000E5FF020EDBCF00F0030EDBCF01F0040E1D
:10178000DBCF02F0050EDBCF03F0060EDBCF04F05B
:10179000070EDBCF05F0080EDBCF06F0090EDBCF1E
:1017A00007F000500201386F0150396F02503A6F54
:1017B00003503B6F045002013C6F05503D6F0650D3
:1017C0003E6F07503F6F02013A353B35006E016AAC
:1017D0000136026A036A016A026A036A0050020162
:1017E000766F0150776F02013E353F3576C204F0C7
:1017F00077C205F0045C006E01500558016E005080
:101800000201766F0150776F7E0E762701E3772B0A
:1018100002013B45010B006E010E001602013F451F
:10182000010B046E010E04160450001A3C513D11C8
:101830003E113F110EE13C6B3D6BC00E3E6F7F0EC3
:101840003F6F3FC2E9FF3EC2F4FF3DC2F3FF3C5190
:1018500025D10201385139113A113B1105E1E96AEC
:10186000F46AF36AE86A1AD102013851016E3951FB
:10187000026E7F0E3A15036E01500201406F025056
:10188000416F800E0310426F436B02013C51016EA9
:101890003D51026E7F0E3E15036E01500201446FF2
:1018A0000250456F800E0310466F476B0201435193
:1018B000800FF36E02014751800FF35C0DE146513A
:1018C0000201425D09E1020145510201415D04E16D
:1018D000020144510201405D0BE2020140514027E8
:1018E000413742374337FF0E0201762701E277077F
:1018F0000201486B496B4A6B010E4B6F02014C6B46
:101900004D6B4E6B4F6B0201485149114A114B11FF
:10191000D8B444D002014351800FF36E0201475105
:10192000800FF35C0DE146510201425D09E10201C5
:1019300045510201415D04E1020144510201405D53
:1019400020E30201485102014C13020149510201F6
:101950004D1302014A5102014E1302014B51020183
:101960004F13020144510201405F0201455102013F
:10197000415B020146510201425B020147510201F3
:10198000435B020140514027413742374337D890EB
:1019900002014B334A3349334833B5D702014C2B4C
:1019A00001E34D2B02E302014E2B02E302014F2B18
:1019B0000201762B01E3772B02014F354F334E3373
:1019C0004D334C334E9F02017751800F7F0F02E160
:1019D000000E765D19E3005006E0016A026A036AB0
:1019E000800E046E04D0016A026A036A046A038EE0
:1019F0007F0E041201500201386F0250396F0350FC
:101A00003A6F04503B6F42D0D880020177AFD89034
:101A100006E30201386B396B3A6B3B6B37D00050F1
:101A200006E0006A016A026A800E036E04D0006A52
:101A3000016A026A036A76C204F077C205F0E86AB6
:101A4000053004300A6E096A0932086A085000122B
:101A50000112095002120A5003124CC204F04DC286
:101A600005F04EC206F04FC207F0045000120550B8
:101A70000112065002120750031200500201386F83
:101A80000150396F02503A6F03503B6F3BC2E9FF80
:101A90003AC2F4FF39C2F3FF02013851E4CF0AF031
:101AA000E4CF09F0E4CF08F0E4CF07F0E4CF06F08C
:101AB000E4CF05F0E4CF04F0E4CF03F0E4CF02F08C
:101AC000E4CF01F0E4CF00F0E4CFD9FF1200D9CF8A
:101AD000E5FFE1CFD9FF00C0E5FF01C0E5FF02C08F
:101AE000E5FF03C0E5FF04C0E5FF05C0E5FF06C054
:101AF000E5FF07C0E5FF08C0E5FF09C0E5FF0AC034
:101B0000E5FF0BC0E5FF0CC0E5FF0DC0E5FF0EC013
:101B1000E5FF0FC0E5FF006A016A026A036A01502F
:101B2000800F800F02E1040E005CD8B0DED0800E82
:101B30000224046E000E0320056E04501C0F066E76
:101B4000000E0520076E06C0E9FF07C0EAFFEECFD2
:101B500006F0EFCF07F00750800F800F02E1010E73
:101B6000065CD8A0BAD00450180F066E000E0520EF
:101B7000076E06C0E9FF07C0EAFFEECF06F0EECF22
:101B800007F0EECF08F0EFCF09F004500C0F0A6E0B
:101B9000000E05200B6E0AC0E9FF0BC0EAFFEECF76
:101BA0000AF0EECF0BF0EECF0CF0EFCF0DF00950B6
:101BB000800FF36E0D50800FF35C08E10C50085C51
:101BC00005E10B50075C02E10A50065C09E2015096
:101BD000E56E0050E56EBEEC05F0020EE1267DD00C
:101BE000080E0426D8B0052A04C0E9FF05C0EAFFA4
:101BF000EECF04F0EECF05F0EECF0EF0EFCF0FF00A
:101C00000A5004260B5005220C500E220D500F22B4
:101C10000950800FF36E0F50800FF35C08E10E50F7
:101C2000085C05E10550075C02E10450065C09E22E
:101C30000150E56E0050E56E98EC0EF0020EE126C4
:101C40004CD004500A2605500B220E500C220F5087
:101C50000D220950800FF36E0D50800FF35C08E1E8
:101C60000C50085C05E10B50075C02E10A50065C71
:101C700009E20150E56E0050E56E7EEC03F0020EC5
:101C8000E1262BD00050046ED8900436000E04BE1E
:101C9000FF0ED8900434056E066A05BE0668000E75
:101CA0000526020E062205C0E9FF06C0EAFF000E67
:101CB000EE6E000EEF6E042AD8900436056A04BE5C
:101CC0000568000E0426020E052204C0E9FF05C0C7
:101CD000EAFF000EEE6E000EEF6E1E0E0226D8B06A
:101CE000032A002AD8B0012A1AD7E4CF0FF0E4CF94
:101CF0000EF0E4CF0DF0E4CF0CF0E4CF0BF0E4CF26
:101D00000AF0E4CF09F0E4CF08F0E4CF07F0E4CF25
:101D100006F0E4CF05F0E4CF04F0E4CF03F0E4CF25
:101D200002F0E4CF01F0E4CF00F0E4CFD9FF1200DD
:101D3000D9CFE5FFE1CFD9FF00C0E5FF01C0E5FF46
:101D400002C0E5FF03C0E5FF04C0E5FF05C0E5FFF5
:101D500006C0E5FF07C0E5FF08C0E5FF09C0E5FFD5
:101D60000AC0E5FF0BC0E5FF020EDBCF00F0030E5B
:101D7000DBCF01F00150E56E0050E56E000EE56E20
:101D8000020EE56E71EC15F0026EF3CF03F0040E57
:101D9000E126F80E0226000E03220150E56E0050E7
:101DA000E56E000EE56E1E0EE56E71EC15F0046E2C
:101DB000F3CF05F0040EE126800E0426000E052266
:101DC0000450180F066E000E0520076E06C0E9FFCE
:101DD00007C0EAFFEECF06F0EECF07F0EECF08F037
:101DE000EFCF09F0100E0426D8B0052A04C0E9FF91
:101DF00005C0EAFFEECF04F0EECF05F0EECF0AF01B
:101E0000EFCF0BF0000EE56E000EE56E000EE56EF6
:101E1000020EE56E0B50E56E0A50E56E0550E56E5C
:101E20000450E56ECCEC10F0046EF3CF05F0F4CF67
:101E30000AF0E9CF0BF0080EE1260B50E56E0A50D0
:101E4000E56E0550E56E0450E56E0950E56E0850EC
:101E5000E56E0750E56E0650E56ECCEC10F0046EB2
:101E6000F3CF05F0F4CF06F0E9CF07F0080EE12636
:101E700002C0E9FF03C0EAFF04C0EEFF05C0EFFFA8
:101E8000000EE56E020EE56E0550E56E0450E56E3F
:101E9000A3EC14F0026EF3CF03F0040EE12602501F
:101EA00003102CE00050026ED8900236000E02BEE5
:101EB000FF0ED8900234036E046A03BE0468000E5D
:101EC0000326020E042203C0E9FF04C0EAFF000E4D
:101ED000EE6E000EEF6E022AD8900236036A02BE42
:101EE0000368000E0226020E032202C0E9FF03C0AF
:101EF000EAFF010EEE6E000EEF6E29D0D89000368C
:101F0000000E00BEFF0ED8900034016E026A01BEC2
:101F10000268000E0126020E022201C0E9FF02C083
:101F2000EAFF010EEE6E000EEF6E002AD89000362A
:101F3000016A00BE0168000E0026020E012200C0E8
:101F4000E9FF01C0EAFF000EEE6E000EEF6EE4CF77
:101F50000BF0E4CF0AF0E4CF09F0E4CF08F0E4CFCF
:101F600007F0E4CF06F0E4CF05F0E4CF04F0E4CFCF
:101F700003F0E4CF02F0E4CF01F0E4CF00F0E4CFCF
:101F8000D9FF1200D9CFE5FFE1CFD9FF00C0E5FFAF
:101F900001C0E5FF02C0E5FF03C0E5FF04C0E5FFA7
:101FA00005C0E5FF06C0E5FF07C0E5FF020EDBCF79
:101FB00000F0030EDBCF01F0040EDBCF02F0050EC4
:101FC000DBCF03F0060EDBCF04F0070EDBCF05F00E
:101FD000080EDBCF06F0090EDBCF07F00050020140
:101FE000106F0150116F0250126F0350136F0450A5
:101FF0000201146F0550156F0650166F0750176FCA
:102000000201105102011603F3CF00F0F4CF01F0EA
:10201000005002011A6F01501B6F020110510201A2
:102020001403F3CF00F0F4CF01F000500201186F59
:102030000150196F0201135102011403F3CF00F094
:1020400002011B51002600501B6F020112510201B8
:102050001503F3CF00F002011B51002600501B6F47
:102060000201125102011403F3CF00F0F4CF01F08A
:1020700002011A5100261B51012200501A6F015013
:102080001B6F0201115102011503F3CF00F0F4CFD1
:1020900001F002011A5100261B51012200501A6F53
:1020A00001501B6F0201115102011603F3CF00F022
:1020B000005002011F6F0201115102011403F3CFFE
:1020C00000F0F4CF01F0005002011D6F01501E6FAF
:1020D0000201105102011703F3CF00F0005002017A
:1020E000236F0201105102011503F3CF00F0F4CF6A
:1020F00001F000500201216F0150226F02011C6BA0
:102100000201206B02011C5102011825006E020120
:102110001D5102011921016E02011E5102011A21F5
:10212000026E02011F5102011B21036E0050186F45
:102130000150196F02501A6F03501B6F020120519A
:1021400002011825006E0201215102011921016EC0
:102150000201225102011A21026E020123510201E1
:102160001B21036E03C0E9FF02C0F4FF01C0F3FFAF
:102170000050E4CF07F0E4CF06F0E4CF05F0E4CF61
:1021800004F0E4CF03F0E4CF02F0E4CF01F0E4CFB9
:1021900000F0E4CFD9FF1200D9CFE5FFE1CFD9FF9E
:1021A00000C0E5FF01C0E5FF02C0E5FF03C0E5FF99
:1021B00004C0E5FF05C0E5FF06C0E5FF07C0E5FF79
:1021C00008C0E5FF09C0E5FF0AC0E5FF0BC0E5FF59
:1021D0000CC0E5FF0DC0E5FF020EDBCF00F0030EE3
:1021E000DBCF01F0040EDBCF02F0050EDBCF03F0F6
:1021F000060EDBCF04F0070EDBCF05F0080EDBCFB9
:1022000006F0090EDBCF07F0D88003AED890086A3D
:10221000083608500FE0031C0C6E021C0B6E011CEC
:102220000A6E001C096E092A0DE10A2A0BE10B4A0D
:102230000C2A08D000C009F001C00AF002C00BF05F
:1022400003C00CF009C000F00AC001F00BC002F09E
:102250000CC003F0D88007AED890096A093609503F
:102260000FE0071C0D6E061C0C6E051C0B6E041C8B
:102270000A6E0A2A0DE10B2A0BE10C4A0D2A08D03E
:1022800004C00AF005C00BF006C00CF007C00DF04A
:102290000D50E56E0C50E56E0B50E56E0A50E56E84
:1022A0000350E56E0250E56E0150E56E0050E56E9C
:1022B0009BEC13F0006EF3CF01F0F4CF02F0E9CF06
:1022C00003F0080EE1260950081A085016E0031C16
:1022D000076E021C066E011C056E001C046E042AAB
:1022E00004E1052A02E1064A072A07C0E9FF06C001
:1022F000F4FF05C0F3FF045007D003C0E9FF02C09C
:10230000F4FF01C0F3FF0050E4CF0DF0E4CF0CF078
:10231000E4CF0BF0E4CF0AF0E4CF09F0E4CF08F00B
:10232000E4CF07F0E4CF06F0E4CF05F0E4CF04F00B
:10233000E4CF03F0E4CF02F0E4CF01F0E4CF00F00B
:10234000E4CFD9FF1200D9CFE5FFE1CFD9FF00C01C
:10235000E5FF01C0E5FF02C0E5FF03C0E5FF04C0E3
:10236000E5FF05C0E5FF06C0E5FF07C0E5FF08C0C3
:10237000E5FF09C0E5FF0AC0E5FF0BC0E5FF020E5F
:10238000DBCF00F0030EDBCF01F0040EDBCF02F059
:10239000050EDBCF03F0005001100210031005E121
:1023A000E96AF46AF36AE86A71D0960E046E056A07
:1023B000035009E0D8900332023201320032042A7D
:1023C000D8B0052AF5D704C006F005C007F0000E06
:1023D000035C08E1800E025C05E1000E015C02E195
:1023E000000E005C19E2005000260136023603366A
:1023F000FF0E0426D8A00506000E035C08E1800E3F
:10240000025C05E1000E015C02E1000E005CEBE302
:1024100004C006F005C007F00050046E0150056EC0
:102420007F0E0214086E096A0450FF0A08E1055085
:10243000FF0A05E108507F0A02E1095001E007D0D8
:10244000006A016A026A036A062AD8B0072A029E55
:10245000E86A073006300B6E0A6A0A32086A0850CA
:10246000001201120A5002120B5003120050020116
:102470006C6F01506D6F02506E6F03506F6F6FC2C3
:10248000E9FF6EC2F4FF6DC2F3FF6C51E4CF0BF0B5
:10249000E4CF0AF0E4CF09F0E4CF08F0E4CF07F08E
:1024A000E4CF06F0E4CF05F0E4CF04F0E4CF03F08E
:1024B000E4CF02F0E4CF01F0E4CF00F0E4CFD9FFA5
:1024C0001200D9CFE5FFE1CFD9FF00C0E5FF01C081
:1024D000E5FF02C0E5FF03C0E5FF04C0E5FF05C05E
:1024E000E5FF06C0E5FF07C0E5FF020EDBCF00F009
:1024F000030EDBCF01F0040EDBCF02F0050EDBCFC5
:1025000003F0060EDBCF04F0070EDBCF05F0080E5C
:10251000DBCF06F0090EDBCF07F000500201506F51
:102520000150516F0250526F0350536F045002011B
:10253000546F0550556F0650566F0750576F5451E2
:1025400055115611571109E153C2E9FF52C2F4FF68
:1025500051C2F3FF020150514BD0020150515111B1
:102560005211531111E154C200F055C201F056C28C
:1025700002F057C203F0037E03C0E9FF02C0F4FF7C
:1025800001C0F3FF005034D002015451006E555188
:10259000016E5651026E800E5719036E0050546F33
:1025A0000150556F0250566F0350576FE56E5651EC
:1025B000E56E5551E56E5451E56E02015351E56EDD
:1025C0005251E56E5151E56E5051E56EC1EC07F088
:1025D000006EF3CF01F0F4CF02F0E9CF03F0080E64
:1025E000E12603C0E9FF02C0F4FF01C0F3FF005081
:1025F000E4CF07F0E4CF06F0E4CF05F0E4CF04F039
:10260000E4CF03F0E4CF02F0E4CF01F0E4CF00F038
:10261000E4CFD9FF1200D9CFE5FFE1CFD9FF00C049
:10262000E5FF01C0E5FF02C0E5FF03C0E5FF04C010
:10263000E5FF05C0E5FF06C0E5FF07C0E5FF020EA8
:10264000DBCF00F0030EDBCF01F0040EDBCF02F096
:10265000050EDBCF03F0060EDBCF04F0070EDBCF59
:1026600005F0080EDBCF06F0090EDBCF07F00050B7
:102670000201246F0150256F0250266F0350276F0F
:1026800004500201286F0550296F06502A6F075029
:102690002B6FD880020127AFD89020E3D8800201A9
:1026A0002BAFD8901BE302012751800FF36E02017C
:1026B0002B51800FF35C0DE12A510201265D09E1E7
:1026C000020129510201255D04E1020128510201A4
:1026D000245D02E2010E1CD0E86A1AD002012B51DF
:1026E000800FF36E02012751800FF35C0DE126513C
:1026F00002012A5D09E1020125510201295D04E17F
:10270000020124510201285D02E2010E01D0E86AB3
:10271000E4CF07F0E4CF06F0E4CF05F0E4CF04F017
:10272000E4CF03F0E4CF02F0E4CF01F0E4CF00F017
:10273000E4CFD9FF1200D9CFE5FFE1CFD9FF00C028
:10274000E5FF01C0E5FF02C0E5FF03C0E5FF04C0EF
:10275000E5FF05C0E5FF06C0E5FF07C0E5FF08C0CF
:10276000E5FF09C0E5FF0AC0E5FF0BC0E5FF0CC0AF
:10277000E5FF0DC0E5FF020EDBCF00F0030EDBCF5F
:1027800001F0040EDBCF02F0050EDBCF03F0060EE6
:10279000DBCF04F0070EDBCF05F0080EDBCF06F031
:1027A000090EDBCF07F0086A096A0A6A0B6A200E75
:1027B0000C6E0344010B0D6E010E0D160050002629
:1027C0000136023603360850082609360A360B361B
:1027D0000D50D8A4088007500B5C08E106500A5C35
:1027E00005E10550095C02E10450085C09E304506E
:1027F000085E0550095A06500A5A07500B5A0080C5
:102800000C2ED7D703C0E9FF02C0F4FF01C0F3FFCD
:102810000050E4CF0DF0E4CF0CF0E4CF0BF0E4CFA8
:102820000AF0E4CF09F0E4CF08F0E4CF07F0E4CFFA
:1028300006F0E4CF05F0E4CF04F0E4CF03F0E4CFFA
:1028400002F0E4CF01F0E4CF00F0E4CFD9FF1200B2
:10285000D9CFE5FFE1CFD9FF00C0E5FF01C0E5FF1B
:1028600002C0E5FF03C0E5FF04C0E5FF05C0E5FFCA
:1028700006C0E5FF07C0E5FF020EDBCF00F0030E48
:10288000DBCF01F0040EDBCF02F0050EDBCF03F04F
:10289000D88003AED8902AE3031C076E021C066E94
:1028A000011C056E001C046E042A04E1052A02E1E5
:1028B000064A072A0750E56E0650E56E0550E56E9C
:1028C0000450E56EA3EC11F0046EF3CF05F0F4CFE5
:1028D00006F0E9CF07F0040EE126077E07C0E9FF06
:1028E00006C0F4FF05C0F3FF04501AD00350E56E94
:1028F0000250E56E0150E56E0050E56EA3EC11F05C
:10290000006EF3CF01F0F4CF02F0E9CF03F0040E34
:10291000E12603C0E9FF02C0F4FF01C0F3FF00504D
:10292000E4CF07F0E4CF06F0E4CF05F0E4CF04F005
:10293000E4CF03F0E4CF02F0E4CF01F0E4CF00F005
:10294000E4CFD9FF1200D9CFE5FFE1CFD9FF00C016
:10295000E5FF01C0E5FF02C0E5FF03C0E5FF04C0DD
:10296000E5FF05C0E5FF06C0E5FF020EDBCF00F086
:10297000030EDBCF01F0040EDBCF02F0050EDBCF40
:1029800003F0D88001AED890046A0436045007E002
:10299000011C066E001C056E054A062A04D000C004
:1029A00005F001C006F005C000F006C001F0D880B7
:1029B00003AED89007E3031C066E021C056E054AA1
:1029C000062A04D002C005F003C006F00650E56EEA
:1029D0000550E56E0150E56E0050E56E15EC15F002
:1029E000006EF3CF01F0040EE12604500AE0011C52
:1029F000036E001C026E024A032A03C0F3FF02505A
:102A000003D001C0F3FF0050E4CF06F0E4CF05F09F
:102A1000E4CF04F0E4CF03F0E4CF02F0E4CF01F020
:102A2000E4CF00F0E4CFD9FF1200D9CFE5FFE1CF2A
:102A3000D9FF00C0E5FF01C0E5FF02C0E5FF03C00C
:102A4000E5FF04C0E5FF05C0E5FF06C0E5FF020E97
:102A5000DBCF00F0030EDBCF01F0040EDBCF02F082
:102A6000050EDBCF03F0046A056A0344010B066E12
:102A700006B011D00250022603360350015C02E179
:102A80000250005C04E2D8900332023204D0052ADE
:102A900005C004F0EAD70350015C02E10250005C7B
:102AA00004E30250005E0350015AD8900332023210
:102AB00004C005F004060550EEE101C0F3FF00502C
:102AC000E4CF06F0E4CF05F0E4CF04F0E4CF03F068
:102AD000E4CF02F0E4CF01F0E4CF00F0E4CFD9FF7F
:102AE0001200D9CFE5FFE1CFD9FF00C0E5FF01C05B
:102AF000E5FF02C0E5FF03C0E5FF020EDBCF00F0FB
:102B0000030EDBCF01F0040EDBCF02F0050EDBCFAE
:102B100003F000500201786F0150796F02500201FA
:102B20007A6F03507B6F0201785102017A03F3CF71
:102B300000F0F4CF01F0005002017C6F01507D6F76
:102B40000201785102017B03F3CF00F002017951B9
:102B500002017A03F3CF01F00150002602017D51FA
:102B6000002600507D6F7DC2F3FF7C51E4CF03F05F
:102B7000E4CF02F0E4CF01F0E4CF00F0E4CFD9FFDE
:102B80001200320EF66E2C0EF76E000EF86E090073
:102B9000F550056E0900F550066E055002E106502D
:102BA0003BE00900F550006E0900F550016E090088
:102BB000F550026E09000900F550E96E0900F55064
:102BC000EA6E090009000900F550036E0900F5508E
:102BD000046E09000900F6CF07F0F7CF08F0F8CF30
:102BE00009F000C0F6FF01C0F7FF02C0F8FF035074
:102BF00002E1045007E00900F550EE6E0306F8E22A
:102C00000406F9D707C0F6FF08C0F7FF09C0F8FFB0
:102C10000506C4E20606C5D7120011EEFFF021EE4C
:102C2000FFF0F86AA68EA69CC1EC15F002EC00F04D
:102C3000FFD70100402C00008202000001000000CC
:022C4000000092
:00000001FF
