:020000040000FA
:1000000000008A150A120028831203138701FF30AB
:10001000831603138700E83083160313A000033010
:10002000A100B030AA000430AB007830B400053035
:10003000B5004030BE000630BF00F430A2000130F1
:10004000A300E830AC000330AD00F430B60001305E
:10005000B700DC30C0000530C100A401A501643048
:10006000AE00AF01C830B800B9012C30C200013079
:10007000C3006430A600A701E830B0000330B1002F
:10008000F430BA000130BB002C30C4000130C50090
:10009000E830A8000330A9001030B2002730B300C8
:1000A0008830BC001330BD00B830C6000B30C7002C
:1000B0008312031310149010A02000308312031336
:1000C0000F0403195C280F0883120313C600C7012D
:1000D0004608FD000030FE003330FF0000308A1576
:1000E0000A12F9218A110A1283120313C7007F082A
:1000F000C6000530FF00831203130E088A150A128A
:100100006B228A110A1283120313C800C90148081E
:10011000C60700300318490FC7074608FF00470805
:10012000A326831203138F010530FF000E088A15E2
:100130000A129C228A110A12831203138E000800ED
:10014000992683120313B1007F08B0007E08A00037
:100150007D08A100831203134A0883120313A1022E
:10016000831203134B08031C4B0A0319BA2883128A
:100170000313A002831203134C08031C4C0A031937
:10018000C42883120313B002831203134D08031C07
:100190004D0A0319CE2883120313B10283160313E9
:1001A000280883120313B200A20083160313290840
:1001B00083120313B300A3000030B31BFF30B5005C
:1001C000B4003108803EB6003508803E3602031D7B
:1001D000F32834083002031DF32833082002031DDE
:1001E000F328320821020318142D83160313200864
:1001F00083120313B200A200831603132108831293
:100200000313A300B401B5012108F9002008FA0086
:100210003008FB003108FC003208FD002308B30061
:10022000FE000030FF0000308A150A1294208A1167
:100230000A1283120313B5007F08B4007E08B300CE
:100240007D08B2002208FD002308FE000130FF00F7
:1002500000308A150A12AA218A110A128312031386
:10026000A3007F08A200B600B801B9013608F90062
:100270002308B700FA000030FB000030FC00320811
:10028000FD003308FE003408FF0035088A150A1205
:1002900094208A110A1283120313BB007F08BA004C
:1002A0007E08A3007D08A2002102A2002308031CEF
:1002B000230F5C2920085F29831203132002831275
:1002C0000313A3003A08031C3A0F682930086B296E
:1002D00083120313300283120313BA003B08031C7A
:1002E0003B0A3102BB003208F9003308FA00340837
:1002F000FB003508FC006430FD000030FE000030DB
:10030000FF0000308A150A1294208A110A12831203
:100310000313B5007F08B4007E08B3007D08B20067
:1003200083160313280883120313BE00BC00831630
:100330000313290883120313BF00BD000030BF1B45
:10034000FF30C100C0003E08F9003F08FA00400835
:10035000FB004108FC004030FD004230FE000F3041
:10036000FF0000308A150A1294208A110A128312A3
:100370000313BF007F08BE007E08BD007D08BC00DF
:1003800083160313200883120313C000831603137C
:10039000210883120313C100C401C5014008C20033
:1003A000F9004108C300FA000030FB000030FC00F7
:1003B0003C08FD003D08FE003E08FF003F088A158E
:1003C0000A1294208A110A1283120313BF007F08B5
:1003D000BE007E08BD007D08BC00F9003D08FA00A3
:1003E0003E08FB003F08FC003208FD003308FE0019
:1003F0003408FF0035088A110A12CD268A110A1224
:1004000083120313B5007F08B4007E08B3007D0893
:10041000B200F9003308FA003408FB003508FC008C
:100420003608FD003708FE003808FF0039088A1535
:100430000A1294208A110A1283120313B5007F084E
:10044000B4007E08B3007D08B200C830F900003067
:10045000FA000030FB000030FC003208FD003308D9
:10046000FE003408FF0035088A110A12CD268A11D1
:100470000A1283120313B5007F08B4007E08B3008C
:100480007D08B2003508803EC6003B08803E46022B
:10049000031D542A3A083402031D542A2308330248
:1004A000031D542A22083202031C5B2A8312031301
:1004B00007148710142D83160313200883120313C7
:1004C000A20083160313210883120313B300A300B1
:1004D000B401B5012108F9002008FA003008FB003A
:1004E0003108FC002208B200FD003308FE00003095
:1004F000FF0000308A150A1294208A110A12831212
:100500000313B5007F08B4007E08B3007D08B20075
:100510002208FD002308FE000130FF0000308A158C
:100520000A12AA218A110A1283120313A3007F0858
:10053000A200B600B801B9013608F9002308B700D7
:10054000FA000030FB000030FC003208FD003308E8
:10055000FE003408FF0035088A150A1294208A111B
:100560000A1283120313BB007F08BA007E08A3009F
:100570007D08A2002102A2002308031C230FC22A27
:100580002008C52A83120313200283120313A30039
:100590003A08031C3A0FCE2A3008D12A83120313DB
:1005A000300283120313BA003B08031C3B0A3102DA
:1005B000BB003208F9003308FA003408FB003508A4
:1005C000FC006430FD000030FE000030FF00003011
:1005D0008A150A1294208A110A1283120313B50095
:1005E0007F08B4007E08B3007D08B20083160313B1
:1005F000280883120313BE00BC00831603132908C6
:1006000083120313BF00BD000030BF1BFF30C100C9
:10061000C0003E08F9003F08FA004008FB0041080E
:10062000FC004030FD004230FE000F30FF00003083
:100630008A150A1294208A110A1283120313BF002A
:100640007F08BE007E08BD007D08BC008316031332
:10065000200883120313C200C0008316031321086D
:1006600083120313C300C100C401C5014208F9008D
:100670004308FA000030FB000030FC003C08FD009D
:100680003D08FE003E08FF003F088A150A1294202C
:100690008A110A1283120313BF007F08BE007E086E
:1006A000BD007D08BC00F9003D08FA003E08FB00D3
:1006B0003F08FC003208FD003308FE003408FF004C
:1006C00035088A110A12CD268A110A1283120313E1
:1006D000B5007F08B4007E08B3007D08B200F900C1
:1006E0003308FA003408FB003508FC003608FD002A
:1006F0003708FE003808FF0039088A150A129420CE
:100700008A110A1283120313B5007F08B4007E0811
:10071000B3007D08B200C830F9000030FA000030A4
:10072000FB000030FC003208FD003308FE003408F6
:10073000FF0035088A110A12CD268A110A12831287
:100740000313B5007F08B4007E08B3007D08B20033
:100750003508803EC6003B08803E4602031DBA2B8A
:100760003A083402031DBA2B23083302031DBA2BA7
:10077000220832020318102D831603132008831257
:100780000313B200A200831603132108831203137C
:10079000A300B401B5012108F9002008FA003008CF
:1007A000FB003108FC003208FD002308B300FE0006
:1007B0000030FF0000308A150A1294208A110A12B4
:1007C00083120313B5007F08B4007E08B3007D08D0
:1007D000B2002208FD002308FE000130FF000030B7
:1007E0008A150A12AA218A110A1283120313B7006A
:1007F000A3007F08A200B600B801B9013608F900CD
:100800003708FA000030FB000030FC003208FD0021
:100810003308FE003408FF0035088A150A129420B8
:100820008A110A1283120313BB007F08BA007E08E4
:10083000A3007D08A200A1022308031C230FA0022D
:100840003A08031C3A0FB0023B08031C3B0FB102ED
:100850003208F9003308FA003408FB003508FC00C0
:100860006430FD000030FE000030FF0000308A15CB
:100870000A1294208A110A1283120313B3007F080C
:10088000B2007E08A3007D08A20083160313280887
:1008900083120313BA00B4008316031329088312CA
:1008A0000313BB00B5000030BB1BFF30BD00BC0014
:1008B0003A08F9003B08FA003C08FB003D08FC0040
:1008C0004030FD004230FE000F30FF0000308A153E
:1008D0000A1294208A110A1283120313BB007F08A4
:1008E000BA007E08B5007D08B40083160313200803
:1008F00083120313BE00BC00831603132108831266
:100900000313BF00BD00C001C1013E08F9003F084C
:10091000FA000030FB000030FC003408FD00350810
:10092000FE003A08FF003B088A150A1294208A113B
:100930000A1283120313BB007F08BA007E08B500B9
:100940007D08B400F9003508FA003A08FB003B08BE
:10095000FC002208FD002308FE003208FF003308D7
:100960008A110A12CD268A110A1283120313B300C8
:100970007F08B2007E08A3007D08A200F9002308CA
:10098000FA003208FB003308FC003608FD00370887
:10099000FE003808FF0039088A150A1294208A11CF
:1009A0000A1283120313B3007F08B2007E08A3006B
:1009B0007D08A2006430F9000030FA000030FB002E
:1009C0000030FC002208FD002308FE003208FF0072
:1009D00033088A110A12CD268A110A1283120313D0
:1009E000B3007F08B2007E08A3007D08A200330890
:1009F000803EC6003108803E4602031D092D3008A6
:100A00003202031D092D20082302031D092D210890
:100A10002202031C102D8312031307108714142DB8
:100A20008312031307148714080083120313AD0104
:100A300083120313071F1F2D83120313AD0A8312A2
:100A40000313AE0183120313871F292D831203138F
:100A5000AE0A831203132E08AF002D06031D352D99
:100A60008312031307138717752D83120313AD0128
:100A700083120313071F3F2D83120313AD0A831242
:100A80000313AE0183120313871F492D831203132F
:100A9000AE0A831203132E08AF002D082F0203188D
:100AA000562D8312031307178713752D8312031313
:100AB000AD0183120313071F602D83120313AD0AC8
:100AC00083120313AE0183120313871F6A2D83124F
:100AD0000313AE0A831203132E08AF002D0203186E
:100AE000752D831203130713871308008312031352
:100AF000AA0183120313071E802D83120313AA0A6F
:100B000083120313AB0183120313871E8A2D8312F2
:100B10000313AB0A831203132B08AC002A06031D30
:100B2000962D8312031307128716D62D83120313F3
:100B3000AA0183120313071EA02D83120313AA0A0E
:100B400083120313AB0183120313871EAA2D831292
:100B50000313AB0A831203132B08AC002A082C02E0
:100B60000318B72D8312031307168712D62D83128D
:100B70000313AA0183120313071EC12D831203134B
:100B8000AA0A83120313AB0183120313871ECB2D12
:100B900083120313AB0A831203132B08AC002A023F
:100BA0000318D62D8312031307128712080083122D
:100BB0000313A70183120313071DE12D83120313EF
:100BC000A70A83120313A80183120313871DEB2DB9
:100BD00083120313A80A831203132808A900270607
:100BE000031DF72D8312031307118715372E831268
:100BF0000313A70183120313071D012E831203138E
:100C0000A70A83120313A80183120313871D0B2E57
:100C100083120313A80A831203132808A9002708C4
:100C200029020318182E8312031307158711372E74
:100C300083120313A70183120313071D222E8312AD
:100C40000313A70A83120313A80183120313871D3A
:100C50002C2E83120313A80A831203132808A90059
:100C600027020318372E8312031307118711080078
:100C700083120313A40183120313071C422E831251
:100C80000313A40A83120313A50183120313871C01
:100C90004C2E83120313A50A831203132508A60002
:100CA0002406031D582E8312031307108714982E51
:100CB00083120313A40183120313071C622E8312F1
:100CC0000313A40A83120313A50183120313871CC1
:100CD0006C2E83120313A50A831203132508A600A2
:100CE000240826020318792E831203130714871091
:100CF000982E83120313A40183120313071C832E5F
:100D000083120313A40A83120313A501831203138E
:100D1000871C8D2E83120313A50A83120313250843
:100D2000A60024020318982E8312031307108710BD
:100D30000800831203171E08FD001F08FE0020088C
:100D4000FF002108080083120313A1007F08A00000
:100D5000A201A3012008831203179E078312031325
:100D600021080318210A0319B82E831203179F07BD
:100D70008312031322080318220A0319C22E8312B6
:100D80000317A0078312031323080318230A031968
:100D9000CC2E83120317A107080083120313E2006D
:100DA0007F08E1007E08E0007D08DF007C08E600A7
:100DB0007B08E5007A08E4007908E3000314E21FE9
:100DC0000310031C6B2F0314E61F0310031C2A2FB0
:100DD0005F09E7006009E8006109E9006209EA00CB
:100DE000E70A0319E80A0319E90A0319EA0A630979
:100DF000EB006409EC006509ED006609EE00EB0A02
:100E00000319EC0A0319ED0A0319EE0A6B08F9003D
:100E10006C08FA006D08FB006E08FC006708FD0016
:100E20006808FE006908FF006A088A150A12262170
:100E30008A110A1283120313EA007F08E9007E0870
:100E4000E8007D08E700FD006808FE006908FF0073
:100E50006A08D62F831203135F09E7006009E800D0
:100E60006109E9006209EA00E70A0319E80A0319BF
:100E7000E90A0319EA0A6308F9006408FA00650838
:100E8000FB006608FC006708FD006808FE006908B2
:100E9000FF006A088A150A1226218A110A12831293
:100EA0000313EA007F08E9007E08E8007D08E700F8
:100EB000E709E809E909EA09E70A0319E80A031951
:100EC000E90A0319EA0A6708FD006808FE006908D4
:100ED000FF006A08D62F031483120313E61F0310C2
:100EE000031CB12F6309E7006409E8006509E90004
:100EF0006609EA00E70A0319E80A0319E90A03196F
:100F0000EA0A6708F9006808FA006908FB006A083D
:100F1000FC005F08FD006008FE006108FF00620839
:100F20008A150A1226218A110A1283120313EA0073
:100F30007F08E9007E08E8007D08E700E709E80986
:100F4000E909EA09E70A0319E80A0319E90A031992
:100F5000EA0A6708FD006808FE006908FF006A08E1
:100F6000D62F831203136308F9006408FA0065089A
:100F7000FB006608FC005F08FD006008FE006108D9
:100F8000FF0062088A150A1226218A110A128312AA
:100F90000313E2007F08E1007E08E0007D08DF0027
:100FA000FD006008FE006108FF00620808000234CE
:100FB0000034E53407341E34013404340034E93499
:100FC0000734ED340034013400340034003400348C
:040FD00000340034B5
:10100000D730FE000730FF0080308A150A124A22CE
:101010008A150A1283160313D9007F08D800D93025
:10102000DA000730DB00831603135808DC00590888
:10103000DD00FF30D807031CD9035C085D040319E9
:10104000902804305A07DC00DD01DD0D5B08DD0768
:101050005C08FE005D08FF0080308A150A124A22F3
:101060008A150A1283160313DF007F08DE005A0870
:10107000FE005B08FF0080308A150A124A228A159A
:101080000A1283160313E100DD007F08E000DC0094
:1010900002305A07DC00DD01DD0D5B08DD075C086E
:1010A000FE005D08FF0080308A150A124A228A1568
:1010B0000A1283160313DD00E3007F08DC00E20060
:1010C000831603135E08E2005F08E300FF30DE07CB
:1010D000031CDF0362086304031989286008FE000B
:1010E0006108FF0080308A150A1237228A150A1219
:1010F00083160313E2005C08840083135D188317D2
:1011000062088000E00A0319E10ADC0A0319DD0A1B
:101110006028063083160313DA070318DB0A132846
:101120008A110A120428080083120313D1007F08D1
:10113000D0007E08CF007D08CE007C08D5007B085B
:10114000D4007A08D3007908D200D601D701D8019B
:10115000D9010830DA00831203134E1CBD2852084F
:10116000D60753080318530FD70754080318540F12
:10117000D80755080318550FD907831203134F1CBE
:10118000D5285408DE005308DD00DB010030D60707
:101190005208DC0003185C0FD7075D0803185D0FC9
:1011A000D8075E0803185E0FD90783120313501C7B
:1011B000ED285308DE005208DD00DC01DB010030C1
:1011C000D607003003185C0FD7075D0803185D0FC2
:1011D000D8075E0803185E0FD90783120313511C4A
:1011E00004295208DE00DD01DC01DB010030D607F6
:1011F000003003185C0FD7075D0803185D0FD80790
:101200005E0803185E0FD907831203134E08DB0034
:101210004F08DC005008DD005108DE0003105E0CB2
:10122000D1005D0CD0005C0CCF005B0CCE00031035
:10123000D20DD30DD40DD50DDA0BAB285608FD0019
:101240005708FE005808FF005908080083160313CA
:10125000CB007F08CA007E08C9007D08C8007C0852
:10126000CF007B08CE007A08CD007908CC00D001F1
:10127000D101D201D3010130D400D501D601D7016B
:101280004C084D044E044F04031D4E29FF30FD0051
:10129000FF30FE00FF30FF00FF30A9298316031343
:1012A000CF1B5D290310CC0DCD0DCE0DCF0D03103E
:1012B000D40DD50DD60DD70D4E2983160313540822
:1012C0005504560457040319A0294F084B02031D67
:1012D00073294E084A02031D73294D084902031D54
:1012E00073294C084802031C9329831603135408DE
:1012F000D00755080318550FD10756080318560F85
:10130000D20757080318570FD3074C08C8024D08D7
:10131000031C4D0FC9024E08031C4E0FCA024F0892
:10132000031C4F0FCB02031083160313CF0CCE0CFC
:10133000CD0CCC0C0310D70CD60CD50CD40C5D29DD
:10134000831603135008FD005108FE005208FF00E9
:101350005308080083160313E5007F08E4007E08A5
:10136000E7007D08E600E801E9010130EA00EB0151
:1013700066086704031DC029FF30FF00FF30F8290D
:101380008316031366086708EC00EC1BCE290310D4
:10139000E60DE70D0310EA0DEB0DC02983160313CC
:1013A0006A086B040319F32967086502031DDA292B
:1013B00066086402031CEA29831603136A08E80717
:1013C0006B0803186B0FE9076608E4026708031C43
:1013D000670FE502031083160313E70CE60C0310F6
:1013E000EB0CEA0CCE29831603136808FF0069088A
:1013F00008008312031791007F0890007E08930075
:101400007D0892009401950108309600831203171D
:10141000101C102A1208940713080318130F9507BD
:101420008312031710089700110898000030981BCA
:10143000FF30181C232A97010030940712089800E7
:101440000318180F95078312031710089700110847
:1014500098000310180C9100170C90000310920DC7
:10146000930D960B062A1408FF0015080800003A91
:1014700003193E2A803A0319452A00347E08840065
:1014800083137F188317000808007F088A007E08EE
:1014900082000800003A0319522A803A03195C2A94
:1014A000FF0100347E08840083137F18831700082F
:1014B000FF00840A000808008A150A124522FD0070
:1014C000FE0FFF03FF0A8A150A124522FC007D0861
:1014D000FF007C0808008312031799007F089A0018
:1014E0009B0101309C001A08031D782AFF309B2ABB
:1014F000831203171A089D009D1B832A03109A0D5F
:1015000003109C0D782A0030831203171C04031962
:10151000982A1A081902031C912A1C089B071A080A
:1015200099020310831203179A0C03109C0C832A50
:10153000831203171B08080083120317A2007F08F9
:10154000A3002308031DA62AFF30C92A01308312F5
:101550000317A400831203172308A500A51BB42AB0
:101560000310A30DA40AAA2A00308312031724042F
:101570000319C62A23082202031CC02A2308A20238
:10158000031083120317A30CA403B42A83120317B6
:041590002208080025
:02400E00323F3F
:00000001FF
